3202003220000014200096206760174753****3153153453JOÃO MACEDO   BAR DO JOÃO       
5202003020000013200556418150633123****7687145607MARIA JOSEFINALOJA DO Ó - MATRIZ
3202003030000012200845152540736777****1313172712MARCOS PEREIRAMERCADO DA AVENIDA
2202003040000011200096206760173648****0099234234JOÃO MACEDO   BAR DO JOÃO       
1202003050000015200096206760171234****7890233000JOÃO MACEDO   BAR DO JOÃO       
2202003060000010700845152540738723****9987123333MARCOS PEREIRAMERCADO DA AVENIDA
2202003070000050200845152540738473****1231231233MARCOS PEREIRAMERCADO DA AVENIDA
3202003080000060200232702980566777****1313172712JOSÉ COSTA    MERCEARIA 3 IRMÃOS
1202003090000020000556418150631234****3324090002MARIA JOSEFINALOJA DO Ó - MATRIZ
5202003100000080200845152540733123****7687145607MARCOS PEREIRAMERCADO DA AVENIDA
2202003110000010200232702980568473****1231231233JOSÉ COSTA    MERCEARIA 3 IRMÃOS
3202003120000610200232702980566777****1313172712JOSÉ COSTA    MERCEARIA 3 IRMÃOS
4202003130000015232556418150631234****6678100000MARIA JOSEFINALOJA DO Ó - FILIAL
8202003140000010203845152540732344****1222123222MARCOS PEREIRAMERCADO DA AVENIDA
3202003150000010300232702980566777****1313172712JOSÉ COSTA    MERCEARIA 3 IRMÃOS
9202003160000010200556418150636228****9090000000MARIA JOSEFINALOJA DO Ó - MATRIZ
4202006170000050617845152540731234****2231100000MARCOS PEREIRAMERCADO DA AVENIDA
2202003180000010900232702980568723****9987123333JOSÉ COSTA    MERCEARIA 3 IRMÃOS
8202003190000000200845152540732344****1222123222MARCOS PEREIRAMERCADO DA AVENIDA
2202003200000000500232702980567677****8778141808JOSÉ COSTA    MERCEARIA 3 IRMÃOS
3202003210000019200845152540736777****1313172712MARCOS PEREIRAMERCADO DA AVENIDA